:020000040800F2
:10000000880B0020B16F0008C56E0008C76E00089D
:10001000C96E0008CB6E0008CD6E0008000000001D
:10002000000000000000000000000000CF6E00088B
:10003000D16E000800000000D36E0008D56E0008E5
:10004000D56F0008D96F0008DD6F0008E16F000868
:10005000E56F0008E96F0008ED6F0008F16F000818
:10006000F56F0008F96F0008FD6F000801700008C7
:1000700005700008097000080D7000081170000874
:1000800015700008197000081D7000082170000824
:1000900025700008297000082D70000831700008D4
:1000A00035700008397000083D7000084170000884
:1000B000D96E0008DF6E0008E56E0008EB6E0008E0
:1000C000F16E000845700008497000084D70000886
:1000D00051700008F76E000855700008597000084C
:1000E0005D7000086170000865700008F8B50400D4
:1000F00025D004F13C05697821B9002028702046FC
:1001000001F02FF92421697020680268520852001A
:1001100002602068016841F40041016020680268C3
:1001200022F40042026001F028FC01466068DFF81A
:10013000A822904205D2DFF8A432994205D20120CC
:10014000F2BDDFF89C028142F9D32068DFF89432D7
:100150004668B1FBF3F3B60943EA861646602668A3
:10016000376A6068904206D34FF4967043434FF469
:100170007A70B3FBF0F35B1CBF0943EA8713336269
:10018000491E2368DE696768974206D27F0000F047
:1001900043F8042913D2042111E0A06820B907EB29
:1001A000470700F039F805E01920474300F034F81C
:1001B00041F4804108050CBF012141F40041DFF802
:1001C000340206400E43DE6122681368E169206A4A
:1001D00023F0C0030B43034313602268DFF81802C7
:1001E000936821690340E0680B43034393602168EF
:1001F000CA68A3696069120A034343EA0222CA601B
:100200002068016841F00101016000206860202140
:1002100069702063A870F2BDB1FBF7F1491CC1F30E
:100220000B017047006841690A0644BF0021016163
:1002300070472DE9F84304460E461546994601F0ED
:10024000EDFB00F000F906D1CDF8008000F0CCF80D
:1002500000F0F6F8002879D13878012876D000F03F
:100260007FF821207870102100F0AEF800F0CEFE6B
:10027000E16A082918BF012904D081421CBF206B04
:10028000122801D100F072F9CDF800800022089DFB
:100290002B4600F0D3F80028206806D00168CA0574
:1002A0004DD54FF40070786049E02169B1F5804F79
:1002B00008BF06F0FE060FD0F10901F0060141F07B
:1002C000F001016143462A46DFF8301100F05BF887
:1002D000002834D12068F6B2066143462A46DFF88A
:1002E000201100F050F8002829D1009021684A69B7
:1002F000009289690091009A208D002821D0424601
:10030000294600F0A3FEA8B900F052F8401E20854F
:1003100021684A69530706D580B220B1606A027825
:100320000A6100F033F842462946204600F0B9FF42
:100330000028E1D07868042801D100F080FE012077
:1003400005E000F07CFE00F004F800E00220BDE8CB
:10035000F283202078700021B97000203870704737
:100360000121397020680268D10703D4026842F085
:10037000010202602068016821F400610160704799
:1003800033464A464146204600F006BF606A411C9B
:100390006162608D411E6185208D411E21857047FF
:1003A000009021684A69009289690091009870471D
:1003B000606A226801781161606A411C6162608D27
:1003C000411E6185208D7047B9700020786065629C
:1003D000A4F82A90608D7047A186010080841E00D9
:1003E00000093D0040420F0019230122DFF894115B
:1003F000704700000030FFFF007CFFFF0800010095
:1004000002000100884691469A4601F007BB009819
:10041000401E0090009870471069616A0870606A19
:10042000421C6262608D411E6185704720680169CF
:10043000606A0170616A4A1C704700224FF0011126
:10044000204600F075BE04F13C07804678782028ED
:100450007047016821F48061016070472DE9F84F11
:1004600004468B46FFF7CFFF04F13C07054678783A
:100470000026202877D1DFF80C810095192301226E
:100480004146FFF7DDFF00286DD1387801286AD09A
:10049000FFF766FF242078707E6000F0B8FD00F062
:1004A00065F800955346FFF7C8FF38B921680BF08F
:1004B000FE00086101F0B2FA054612E0206801680A
:1004C000CA0544BF4FF40070786003204CE001F08F
:1004D000A5FA401B824502D3BAF1000F01D1A0203A
:1004E00078702168486949697A784008890AA02AA1
:1004F00000F0010001F0010101D00843E7D0202005
:100500007870206841698A0712D400F095FE22684D
:1005100050610095192301224146FFF791FF00BB6E
:10052000761C4E45BBD3202078700021397018E02E
:10053000026842F4007202600020009019232168D2
:100540004A6900920122896900914146009800950C
:10055000FFF776FF28B9202078700021397000203D
:1005600002E0012000E00220BDE8F28F206801686F
:1005700041F48071016070473068016841F4807116
:100580000160704702001000416841F480514160F1
:1005900070472DE9FC41044604F13C052268DFF870
:1005A000B08A5168D4F82CE0A8786B78002710281E
:1005B00018BF402840F048829769D2F814C05FEA1B
:1005C000CC7605D4BEF52A0F18BFBEF12A4F47D00E
:1005D0005FEACC7645D58E0543D5E06AB0F52A0FA3
:1005E00008BF012104D0E06AB0F12A4F01D10821EF
:1005F000E162A878402809D168690028A8681ABF74
:1006000040F00100C0B200F0FE0028E02069B0F523
:10061000804F16D168782128A8680EBF00F0FE0030
:1006200040F00100C0B21061606B00281CBF806AFE
:1006300000282AD1A06B00281CBF806A00280FD098
:1006400023E0686920B900F0FDFA40F0F00006E010
:100650006869012804D100F0F5FA40F0F10010615A
:10066000EEE25FEA0C7615D58E0513D5A868C0B208
:100670001061606B00281CBF806A002805D1A06B48
:1006800000281CBF806A0028EAD02068416841F435
:10069000006138E15FEA8C7600D58E0540F1B880C4
:1006A000AB78E16A276B6878222840F0A9806869F6
:1006B000002808BF402B04D1002100F0DCFA009A8A
:1006C000BEE26869002804BF2069B0F5404F08D138
:1006D00000F0D7FA41F4807111606869401C6861CC
:1006E000AEE2608D28B900F0CCFA41F400711160DF
:1006F00083E0608D01283CD1414515D1116821F47A
:100700008061116021684868020506D5086820F4F8
:1007100080600860002100916DE0002200924B692A
:1007200000938A6900920FE0082918BF202903D09E
:10073000122F0FD1012912D0106820F480601060B0
:100740000021009100F0B3FA00980A6842F40072A8
:100750000A6052E004291CBF0229102904D0106845
:1007600020F48060106044E0116841F48061116001
:100770003FE0638D022B29D104291CBF02291029D7
:100780000CD0106840F4006000F084FA976900977C
:100790000098136823F48063136007E0106840F446
:1007A000806000F077FA92690092009820684268B1
:1007B000130522D5414518BF012904D008291CBFC3
:1007C0001029202919D1FFF7DFFE16E0106840F448
:1007D000806010602068426813050AD5414518BF43
:1007E000012904D008291CBF1029202901D1FFF7B5
:1007F000CBFE00200090FFF7D4FD002169611FE2CD
:10080000002300935169009192690092009917E2C8
:100810007F075ED556683705F9D45FEA0C662DD59B
:100820004F052BD55FEA4C7628D46978AB78E76A18
:10083000208D002808BF212913D1082F1CBF202F8D
:10084000474504D000F009FA0022AA702EE000F01B
:100850005BFA31D10021A9702046BDE8F64101F0D4
:10086000E3B8212903D0402B08BF2229CFD1608DC6
:1008700000284CD0A878402827D0B1E15FEA4C7717
:10088000C5D58905C3D5212B1DD1E16A68782128FA
:100890003AD1608D08B100F0A3B908291CBF202906
:1008A000414506D000F0D9F90020A87020216970D8
:1008B00004E000F029FACDD00021A9702046BDE85F
:1008C000F64101F0B2B840281ED12046BDE8F641FD
:1008D000C0E25068030517D45FEA4C6063D54B054E
:1008E00061D55FEA4C705ED4697822290CD1608DA5
:1008F00004280AD3FFF790FD608D032804D12068F7
:10090000416821F4806141609AE1E16A022947D09F
:10091000012818BF002843D10020DFF810180090EC
:1009200019200B68B3FBF0F04FF47A78B0FBF8F8BD
:1009300008EB88000090FFF76AFDD0B113689805B6
:10094000F9D4116821F48061116000F063FBFFF7B6
:100950006DFD62622022FFF765FD6A70A87840286D
:1009600069D10021A97021632046BDE8F64101F05C
:100970005DB8686840F020006860506820F4E0606E
:100980005060226800F070F92023608D421E62855D
:100990006B700020A8702046BDE8F64101F047B812
:1009A00000F056F94CE15FEA4C70FBD58905F9D5AA
:1009B000E06A618D042904D100F04AF921680869D0
:1009C00037E1618D03290CD15168042821F480613D
:1009D00018BF0228516001D000F08AF9FFF726FD08
:1009E0002BE1618D022940F02381012818BF1028D6
:1009F0000CD0042818BF022803D0106840F40070FF
:100A000007E0116841F48061116003E0106820F490
:100A10008060106000F051F9FFF703FD2268FFF7D6
:100A2000FBFC2068416821F440714160202068701F
:100A3000A978402995D00020A87012212163204672
:100A4000BDE8F64100F0F4BF686800B997695069E5
:100A5000860722D58E0520D5686800B19769687829
:100A6000002100F02800282811D100F0F1F87807C3
:100A700058BF0121380654BFE268A26900202870DF
:100A800002B02046BDE8F04192B200F0D2BF00F0C3
:100A9000F2F80021009A2970D2E0C70675D58E05BC
:100AA00073D56F78506820F4E060506000210091A9
:100AB000206841690091026842F0010202600098DA
:100AC00000F016F921684868020526D5222F18BFC4
:100AD0002A2F0FF28D560FD0606B00F0F5F8606B87
:100AE00001F02CF8012818D0606B4663606B00F0B1
:100AF000C6FF90B1606B0EE0A06B00F0E5F8A06B54
:100B000001F01CF8012808D0A06B4663A06B00F030
:100B1000B6FF10B1A06B416B8847608D98B120681B
:100B200041694A0702D50069FFF777FC20684169EF
:100B30004A0602D50069FFF770FC608D18B168683D
:100B400040F004006860686818B12046BDE8F641CE
:100B5000DAE12A2F05D1206328216970204600F0B0
:100B6000F0FF6878282808D1C4F82C8000F0C6F877
:100B70002046BDE8F64100F0E5BF206B222818BFF3
:100B8000222F5DD100F0BAF847E0212B18BF292BA6
:100B90002DD103061DD54B051BD5430719D4697804
:100BA000608D00284CD0606A03781361606A421C33
:100BB000626200F076F808BF292941D100F092F86E
:100BC00021202063282169702046BDE8F64100F00D
:100BD000BABF400734D5890532D5608D00282FD0A3
:100BE000606A01781161606A411C616226E0430617
:100BF00018D54B0516D5430714D46978608DF8B124
:100C000000F032F800F04DF808BF2A2918D100F0A2
:100C100069F822202063282169702046BDE8F6414A
:100C200000F08FBF40070BD5890509D5608D38B11D
:100C30001069616A0870606A421C6262FFF7F2FB29
:100C4000BDE8F381A8680004C00D00F006007047FD
:100C5000506820F4806050607047506820F4E06075
:100C600050601121216370471069626A1070606AD8
:100C7000431C63627047009153690093916900912E
:100C80007047002100915369009391690091009889
:100C90001168704710600022009222685369009327
:100CA0007047608D421E6285608D00287047216804
:100CB0004A6900928B690093704721680869616AEC
:100CC0000870606A421C7047026853686385608DD3
:100CD00018B1686840F004006860486820F400605B
:100CE000486070472068416821F480614160704726
:100CF0002068016821F48061016070470020206352
:100D000020216970A8707047506820F4E06050603E
:100D10002068016841F400710160002020632021F7
:100D20006970A87840287047F8B5054605F13D0080
:100D300029684E694F6842780024F3050AD5FB05FF
:100D400008D56FF480734B61012429680B6843F464
:100D500000430B60B10507D5FB0505D52B686FF483
:100D6000007144F002045961710560D5FB055ED540
:100D70006B8D90F800C0D5F830E0202A08BF002B1A
:100D80006FF4806148D1BCF1210F18BFBCF1290F6D
:100D900005D0BCF1280F08BFBEF1210F3CD102786D
:100DA000EB6ADFF8ACC2082B14BF202B282A16D11F
:100DB000C5F82CC02A68536823F4E06353602A689E
:100DC0005161202229680B6823F480630B600021A5
:100DD000296302704170284600F0B4FE27E0212A02
:100DE00017D1C5F82CC02A6320230370002242705B
:100DF0002868426822F4E0624260286841612868FD
:100E0000FFF727FB2846FFF70DFA284600F09BFE68
:100E10000DE0286841610AE02B68102A18BF402ABB
:100E2000596144F0040402D1286800F014F9300537
:100E300007D5F90505D529686FF4006044F008046A
:100E4000486134B1286C04432C642846BDE8F24064
:100E50005AE0F1BD10B500F13D0300F148021C78E5
:100E6000916871B900685168012905D11368DBB236
:100E700003619068801C19E011680904090E016182
:100E800012E09168012907D113680068DBB20361A1
:100E90009168491C916010BD916802292FD1222CC4
:100EA00006D10068FFF769FB9068401C906010BD98
:100EB000418D61B1212C0AD1416A03680A781A6117
:100EC000416A4A1C4262418D4A1E428510BD418DD5
:100ED000002908BF212C16D101684A6822F4E0627B
:100EE0004A6001680A6842F400720A6000210163E6
:100EF00020221A705970BDE8104000F095BDBDE881
:100F00001040FFF78FB910BD38B5044604F13D0518
:100F100028786978102914BF4029222804D1216833
:100F20000A6822F400620A6000F02801282903D12F
:100F30000020206329700BE0226851680A0505D45F
:100F4000602803D0202028700021697000202063D1
:100F5000206841680A0523D5416821F40061416099
:100F6000606B0FF2FD0190F82120012A09D0416346
:100F7000606B00F084FD002825D000F058F8606B0D
:100F80000BE0A06B4163A06B00F079FDD8B1206845
:100F900000F032F800F04BF8A06B416B884712E08C
:100FA0002A78602A0AD1202129700022226400F0C8
:100FB00023F800F035F800F0C7FD04E000F01CF85D
:100FC000204600F034FD206C10F00F0F01D000F02F
:100FD00021F82878216C4A070DD528280BD100F07C
:100FE00016F8002121632020287069702046BDE892
:100FF000324000F0A7BD31BD41694A0605D5006900
:10100000616A0870606A421C6262704720851048FD
:10101000E06270472068416821F4E06141607047F8
:10102000206801684908490001602046704720682F
:101030000168490849000160202028707047206835
:10104000016841F40071016070474146204608E1A3
:101050000000FFFF3068016841F4007101607047D3
:101060007CB5002100911925416A304801F13D020B
:101070004FF47A7613780468B4FBF5F5B5FBF6F611
:10108000232046430096009838B10098401E0090F7
:101090000C6820688505F6D403E0086C40F0200059
:1010A0000864486B08B100248462886B08B100248E
:1010B00084620868046824F4806404600020488521
:1010C000486B08B100244463886B08B10024446372
:1010D000086804686408640004601078602809D116
:1010E00020231370002454700C640846BDE8764039
:1010F00000F02ABD03F02803282B0ED108680368EE
:1011000043F00103036028230868046844F4806402
:10111000046000200863137003E020201070002496
:1011200054700846BDE8764000F081BCC400002041
:101130002DE9F8430F46089C0646904699463D0C1B
:101140003068E9B201290CBF4069806900F06FF88E
:101150000CBF0120002040451CD119F1010FEFD038
:1011600000F05CFC001B814502D3B9F1000FE7D110
:101170003068E9B201290CBF4069806900F057F876
:101180000CBF012000204045DAD100F05CF80120BE
:10119000BDE8F2830020FBE72DE9F0410F4606464B
:1011A000144698463D0CE8B2012837D130684169B1
:1011B000394089B2B8B2814237D0306841694A05B6
:1011C00010D500F039F832685061002106F13C007A
:1011D0003163202242708170426842F00402426012
:1011E000017014E014F1010FDDD000F017FCA0EB4A
:1011F0000800844201D3002CD5D1E9B2306801291E
:1012000008D1406900F013F8D0D000F01CF801209C
:10121000BDE8F081806900F00AF8F6D13068816994
:10122000394089B2B8B28142C7D10020F0E73840D6
:1012300080B2B9B288427047016841F40071016020
:101240006FF48060704700203063202106F13C007D
:10125000002241708270416841F0200141600270BB
:10126000704770B505460C46164628684169080661
:1012700015D4284600F042F878B914F1010FF4D0E3
:1012800000F0CCFB801B844201D3002CEDD12868F8
:1012900041690806E9D400F024F8012070BD00205F
:1012A00070BD70B505460C4616462868416948076A
:1012B00015D4284600F022F878B914F1010FF4D0C3
:1012C00000F0ACFB801B844201D3002CEDD12868D8
:1012D00041694807E9D400F004F8012070BD0020FE
:1012E00070BD002105F13C0029632022427081700D
:1012F000426842F0200242600170704701684A690A
:1013000053050FD56FF480624A61002101633C30C0
:10131000202242708170426842F0040242600170F3
:101320000120704700207047754881B0016841F086
:1013300001010160026802F0010200920099426816
:1013400042F080524260406800F080500090009867
:101350006C48016821F0E06141F00071016001B06A
:10136000704718B585B004461022002101A800F08E
:10137000ECFB21686448814234D1614C216841F022
:10138000080121604FF44071206800F008000090CF
:10139000122200985D48019102920321049101A953
:1013A00000F0ECFB5748016841F0E06141F00201B8
:1013B00001600022606840F40010606000216068F5
:1013C00000F40010009000981F2000F0D5FC1F20B2
:1013D00000F0EFFC00220021202000F0CDFC2020B6
:1013E00000F0E7FC06B010BD80B50068484A4449EB
:1013F000904209D1086840F400600860096801F46F
:1014000000610091009801BDB0F1804F0FD1486894
:1014100040F0010048600022486800F001000090A0
:10142000002100981C2000F0A7FC1C2024E0394A71
:1014300090420FD1486840F002004860002248689E
:1014400000F002000090002100981D2000F094FCA4
:101450001D2011E0304A904212D1486840F004004B
:1014600048600022486800F00400009000210098C5
:101470001E2000F081FC1E20BDE8024000F099BC57
:1014800001BD18B585B0044610220021684600F061
:101490005CFB21682148814230D11948204C016809
:1014A00041F480410160026802F480420492049990
:1014B000026842F0040202604FF40071006800F01C
:1014C00004000490022204980091019203210391E8
:1014D0002046694600F052FB4FF4806000210090E6
:1014E000019102912046694600F048FB002200214C
:1014F000252000F041FC252000F05BFC06B010BD6B
:10150000181002400400014000540040000C01404B
:10151000002C014000040040000800400038014059
:10152000000801402DE9F843040016D02078DFF8C8
:101530007064C10713D5706800F00C00042807D050
:10154000706800F00C00082841D17068C1033ED5D6
:101550003068810303D56068002800F0648120783A
:10156000DFF84C74810719D5706810F00C0F07D0A4
:10157000706800F00C00082861D17068C1035ED467
:101580003068810703D52069012840F04C8131681B
:10159000606921F0F80141EAC00131602178080753
:1015A00040F18180A069DFF80C14002800F0A680CB
:1015B00001220A6000F032FA0546706A810763D49E
:1015C00000F02CFA401B0228F7D903202EE16068B6
:1015D000B0F5803F04D1306840F48030306014E0D2
:1015E00008B930680AE0B0F5A02F306806D140F4A1
:1015F00080203060316841F4803105E020F4803093
:101600003060316821F480213160606858B100F0A9
:1016100005FA054630688103A1D400F0FFF9401BAC
:101620006528F7D3D1E700F0F9F905463068810362
:1016300095D500F0F3F9401B6528F7D3C5E720697D
:10164000A8B10121396000F0E9F905463068810749
:1016500005D400F0E3F9401B0228F7D9B5E730685C
:10166000616920F0F80040EAC100306096E7386018
:1016700000F0D4F90546316888078FD500F0CEF91F
:10168000401B0228F7D9A0E7DFF818030168C90852
:101690004FF47A72B1FBF2F2009200BF0098411E43
:1016A00000280091F9D1207841076ED5F069002516
:1016B000C10009D4F06940F08050F0610125F06963
:1016C00000F0805000900098DFF8EC82D8F800001D
:1016D000C10520D4D8F8000040F48070C8F800009C
:1016E00000F09CF98146D8F80000C10513D400F041
:1016F00095F9A0EB09006528F5D366E7086000F0CE
:101700008DF90546706A8107CDD500F087F9401B39
:101710000228F7D959E7E068012808D008B9306AEB
:1017200009E00528306A06D140F004003062306AD2
:1017300040F0010005E0400840003062306A20F0CF
:101740000400306241F28938E06860B100F066F967
:101750008146306A810713D400F060F9A0EB0900DC
:101760004045F6D331E700F059F98146306A8107E8
:1017700006D500F053F9A0EB09004045F6D324E765
:101780001DB1F06920F08050F061E06900284CD074
:10179000716801F00C01082938D002282AD100F024
:1017A00047F805463068810105D500F037F9401B40
:1017B0000228F7D909E7206AB0F5803F05D17168A2
:1017C000A06821F40031014371607268206A616A87
:1017D00022F4741202430A437260012000F029F8D7
:1017E00004463068810120D400F018F9001B02285B
:1017F000F7D9EAE600F01CF804463068810114D5F8
:1018000000F00CF9001B0228F7D9DEE601280AD007
:101810007068226A00F48031914202BF00F47010B7
:10182000616A884201D0012000E00020BDE8F28317
:101830000020386600F0F2B82DE9F0410400884637
:101840004ED05E4E00F077F802D200F06FF847D12C
:101850002068534D810712D5400703D5696841F4CC
:10186000E06169602078010703D5686840F4605042
:1018700068606968A06821F0F0010143696021781F
:10188000C80725D56068012802D129688A0303E0CA
:101890000228296802D18A0102D421E08A071FD5D3
:1018A0006968890840EA8100686000F0B7F8074677
:1018B0006868616800F00C00B0EB810F08D000F0A0
:1018C000ADF8C01B41F289318842F1D303202BE0EF
:1018D000306800F00700804504D200F027F801D0FE
:1018E000012021E02078410705D56A68E06822F4EC
:1018F000E06202436A602178080706D569682069BA
:1019000021F4605141EAC001696000F019F86A6889
:101910002B49244BC2F30312895CC840186023484A
:10192000006800F071FA0020BDE8F0813168C90854
:1019300048EAC1013160306800F007004045704757
:10194000204919480A6802F00C03082B00D07047A0
:1019500010B500BF1EA4C2F38343D203E35C08D5D5
:10196000096858431EA3C1F340415A5CB0FBF2F032
:1019700010BD18461449484310BD0A48114A006872
:1019800013681249C3F3022206E006480D4A0068B4
:1019900013680E49C3F3C222895CC8407047000037
:1019A00000100240C400002000127A00C000002095
:1019B0000000424280044242007000400020024089
:1019C000A06F00080410024000093D00CC6F000821
:1019D00002030405060708090A0B0C0D0E0F101070
:1019E000010230B4002513E050F8042BD30744BFA4
:1019F000A9F101039A18091F042942F8045BFAD2DD
:101A000013468C0744BF15809B1CC90748BF1D7037
:101A100050F8041B0029E7D130BC704701484068EA
:101A2000704700BFB800002070477047704770478C
:101A30007047704710B590F82110022900F1380264
:101A400006D004231360002180F82010012010BD6F
:101A500001680B6823F00E030B60012301680C681A
:101A6000640864000C60916852688B4053600121E7
:101A700080F82110002280F82020002010BD38B509
:101A800090F821200024022A00F1340103D0042020
:101A9000486001243BE00268136823F00E031360E2
:101AA0000268DFF87C3015686D086D00156002680B
:101AB0009A4208BF012222D0DFF868309A4208BF5C
:101AC00010221CD0DFF860309A4208BF4FF48072B9
:101AD00015D0DFF858309A4208BF4FF480520ED02C
:101AE000DFF84C309A4208BF4FF4803207D0DFF85D
:101AF00044309A420CBF4FF480124FF08072DFF8EE
:101B000038301A6000F005F8096801B188472046AE
:101B100032BD012280F8212080F82040704700006B
:101B2000080002401C000240300002404400024015
:101B3000580002406C0002400400024090F821006E
:101B40007047704770477047704710B5044610469D
:101B50000A460146204600F077F9204610BDB1F54F
:101B6000807F02D34FF0FF30704701700120704733
:101B70000078401E8041C043C00F70472DE9F847F0
:101B80004FF0000E0024624A624BDFF88C814FF068
:101B90000F0982460CE017683840106006E0556077
:101BA0004D68ED03F7D51068074317600EF1010E7D
:101BB0000F6837FA0EF000F09F80012000FA0EF651
:101BC0003740B742F2D1486838B301281AD002280A
:101BD0001DD003282ED0112816D012281AD04F4D10
:101BE000A8421CBF4E4DA84217D04E4DA8421CBF64
:101BF0004D4DA84211D04D4DA8421CBF4C4DA8429E
:101C00000BD018E0CC6816E0CC68241D13E0CC683B
:101C1000083410E0CC680C340DE0886808B904245E
:101C200009E0012819BF0824CAF814600824CAF87A
:101C3000106000E00024B7F5807F03D250464FEAE1
:101C40008E0C05E0AEF108050AF104004FEA850CA0
:101C5000056809FA0CF6B54304FA0CF6354305603D
:101C60004868C000A2D5D8F8000040F00100C8F8CC
:101C70000000D8F8005005F0010500954FEA8E05E8
:101C800000984FEA9E0053F8206005F00C0C09FA0A
:101C90000CF526EA0505274EB24508BF00260ED0F2
:101CA000254EB24508BF012609D0244EB24508BFD3
:101CB000022604D0224EB2450CBF0326042606FAA3
:101CC0000CF6354343F82050F8434D68ED02956813
:101CD0004CBF3D43054095604D68AD02D5684CBF93
:101CE0003D430540D5604D685668AD034CBF47EA9B
:101CF000060500EA060552E7BDE8F187806808405E
:101D000018BF0120C0B2704702B9090401617047D1
:101D100000040140080001401810024000001110AA
:101D200000001210000021100000221000003110ED
:101D30000000321000080140000C0140001001407A
:101D4000001401400901020002D42948815470475F
:101D5000284B02F00F021A4402F8041C7047264B6D
:101D600019684FF6FF020002114000F4E0600843DA
:101D7000224908431860704770B51F4B1C68C4F3B4
:101D800002230124C3F10705052D2EBF0F2504FAF8
:101D900005F56D1E1E1D072E34BF0023DB1E2940D6
:101DA000994004FA03F3BDE870405B1E1A401143EA
:101DB000C8E7010007D4012200F01F01104B8A4040
:101DC000400943F82020704710B5401EB0F1807FD5
:101DD00001D3012010BD0B4C60600F214FF0FF308C
:101DE000FFF7B0FF0021A16007202060002010BD98
:101DF00000E400E018ED00E00CED00E00000FA0562
:101E000000E100E010E000E038B50D4D0D4B2A7800
:101E100004464FF47A711868B1FBF2F2B0FBF2F0AD
:101E2000FFF7D2FF50B9102C08D2002221464FF004
:101E3000FF30FFF7A1FFAC60002032BD012032BDB2
:101E4000B8000020C400002062F30F2262F31F429A
:101E5000401810F0030308D0C91A1FD3DB0748BF8E
:101E600000F8012D28BF20F8022D130030B41446CD
:101E70001546103928BF20E93C00FAD8490728BF89
:101E800020E90C0048BF40F8042D890028BF20F845
:101E9000022D48BF00F8012D30BC7047C91818BF8B
:101EA00000F8012DCB0728BF00F8012D704702680C
:101EB000531C0360117070472DE9F14FB2B0994681
:101EC000924600230691CDE900333C9A0F930DF121
:101ED0004A0114914A7011E0329E57462C4617F879
:101EE000011B0698B0470028069000F026810F9845
:101EF000401C641E0F90F2D13296AA449AF800005A
:101F0000252808D10021002209910A920B910C92F8
:101F10000D910E920FE06A464FF0FF31504601F0EE
:101F200063F8050002D10F9800F066BED4D50125F4
:101F3000E3E741F001011AF8010F2028F9D0232826
:101F40000CD02B2804D02D2805D0302809D00BE048
:101F500041F00201EFE741F00401ECE741F0080134
:101F6000E9E741F01001E6E72A280FD1D9F800206F
:101F700052F8040BC9F800200028119003D5404204
:101F8000119041F004010AF1010A14E01192DFF806
:101F9000EC3B0AE01198984205DA00EB800402EB72
:101FA0004402303A11920AF1010A9AF80020A2F193
:101FB00030000A28EED39AF800002E2803D04FF004
:101FC000FF32109229E01AF8010F2A2809D1D9F816
:101FD000000050F8042BC9F8000010920AF1010A21
:101FE0001BE02D280CBF0AF1010A002000221092EC
:101FF000DFF8882B0BE040B9109B934205DA03EB26
:10200000830504EB4504303C10940AF1010A9AF868
:102010000040A4F130030A2BEDD3ADF848100FF6C1
:1020200060309AF8001000F0E9FF08B11AF8010BCF
:102030008DF84A009DF84A00682805D19AF80000FA
:1020400068280CD1622106E06C2804BF9AF80000D1
:102050006C2804D171218DF84A100AF1010A1FA8D9
:1020600008901AF801BBBBF125012DD01C3900F0F6
:102070006181091F022940F25D810E392AD0491F72
:1020800000F0B384093900F05581891E00F04985BC
:10209000491E00F0F584491E022940F24B81091FB8
:1020A00000F0EE84491F00F0BA80491E00F09D84C4
:1020B000491E65D0C91E21D0891E00F09684C91E14
:1020C00000F0938400F04CBD25238DF87C30012175
:1020D00009912AE06C208DF84A00D9F8000050F8E8
:1020E000042BC9F80000002A43D11499487800282D
:1020F0003DD04FF0FF340FF6902012E09DF84A00DB
:102100006C28EAD0D9F8000050F8044BC9F8000058
:102110000794D4B91499487898B14FF0FF340FF66A
:10212000842000F077FF201A07D132981FAA04A953
:1021300000F065FD00287FF5E1AE4FF0FF3000F0C4
:102140005BBD0FF67C200790EFE7109D002D04D5B6
:10215000204600F07FFF044607E02A46204600F0B4
:1021600083FF002814BF041B2C460A94DDE70FF6FA
:102170005422329804A900F0C8FD0028D5D5DCE728
:10218000D9F8001051F8040BC9F8001020F0000431
:10219000002121F0FF351FABCDE904450793DDE9B0
:1021A000042308993C2413B90AB9109898B102F095
:1021B0000F053035641EEEB23A2EA8BF273512093E
:1021C00042EA03721B090D5508BF002A03D0079885
:1021D0000D19A842EBD308190790C4F13C021098DE
:1021E0000A92824209DABDF84810821A4FF6EF705F
:1021F00001400C92ADF8481097E7002895D59DF85E
:10220000480000F0140010288FD1119B09990C98F8
:102210005B1A1B1A9A1A002A87DD0C9285E714991B
:10222000487820B14FF0FF340FF69C1079E79DF805
:102230004A00622862D0682819D06A2840D06C28E9
:1022400006D071284DD074282DD07A281ED064E095
:10225000D9F8001051F8040BC9F8001020B94FF05C
:10226000FF340FF67C105CE70F9901605DE7D9F849
:10227000001051F8040BC9F8001020B94FF0FF34DA
:102280000FF65C104DE70F9901804EE7D9F800106A
:1022900051F8040BC9F800100028E5D14FF0FF34C5
:1022A0000FF63C103DE7D9F8001051F8040BC9F8BF
:1022B00000100028D8D14FF0FF340FF6241030E77B
:1022C000D9F8001051F8040BC9F8001020B94FF0EC
:1022D000FF340FF60C1024E70F9AD317C0E9002340
:1022E00023E7D9F8001051F8040BC9F800100028B2
:1022F000F2D14FF0FF340FF6E80012E7D9F80010E2
:1023000051F8040BC9F8001020B94FF0FF340FF654
:10231000D00006E70F99017007E7D9F8001051F8CF
:10232000040BC9F8001000289ED14FF0FF340FF6BF
:10233000B000F6E6D9F80020D21D22F00702C9F855
:102340000020D2E900010832C9F80020CDE90401DB
:10235000C80F02D009982D210AE0BDF84800810776
:1023600002D509982B2103E0C00705D50998202143
:102370001FAA1154401C0990DDE9042309991FA8E4
:10238000CDE92E2308444BF020016129079015ACBC
:102390000BD01099002902D50621109105E001BF4C
:1023A0004BF02001672901221092DDE90423590036
:1023B0004915491C10D11A030ED0ABF16105032158
:1023C0001A2D0A9102D20FF6A43101E00FF6A031C6
:1023D000032200F075FEA8E659004915491C0AD1F0
:1023E0001A0308D1ABF1610503211A2D0A9116D306
:1023F0000FF68431ECE7DDE90401CDE93001DDE9D8
:10240000302323F00047B7F5801F22F000060DD2DD
:102410000022002F08BF002E029203D116E00FF613
:102420005431D5E702AA00F057FE0FE0DFF8EC0ABE
:10243000DFF8EC1A00EB17500290DDE930234FF083
:10244000FF301940DFF8DC7A10403943CDE9040150
:102450004BF0200061280DD1079830210170821CBB
:10246000BBF1610F07920CBF782158214170099888
:10247000801C0990DDE9040120F0000231F00043E6
:1024800008BF002A02D10026002571E14BF0200888
:10249000B8F1610F40F0BE801098002847BF21219D
:1024A0000391401C0390039FDDE92E017F1C002255
:1024B0000023DDE9044500F047FE02998DF8542021
:1024C00038BF85F00045091F002F02910DF1550618
:1024D0005DDDDFF8541ACDE9302140F2FF732E9311
:1024E000204629460022002300F046FE4FD2480035
:1024F000400D00F11C0215D0002A13DD2E9B9A42DC
:102500000ADBDDE9300121F0004205F00040024322
:10251000DDE93001114611E06FF31E5141EA02512D
:1025200020460BE024F0000035F0004108BF0028F1
:102530000FBF29461C22294600F036FE04460D46F0
:1025400000F0D0FEFF1F002F804609DD00F0E8FEFE
:1025500002460B462046294600F0F4FE04460D468E
:10256000F01D0721B8F1000F0CDD491E5EBF08F019
:102570000F0200F8012D4FEA2818F3D502E00022DF
:1025800000F8012D491EFAD5C61D002FA8DC0DF15B
:102590005500361A03988642D8BF304600280DF100
:1025A000550430D4B04206DA0DF155010A5C082A10
:1025B000A8BF0F2100DA0021024615AB134400E04A
:1025C000401E13F80159521E8D42F9D00F2904D133
:1025D0000DF155018B5C5B1C8B54002A04D50299CC
:1025E000091D15AC401C0291411E0CD46218ABF1C0
:1025F0003A0613783033DDB23A2DA8BFF318491EDE
:1026000002F80139F5D51099002940F1AF80421E3A
:102610001092ABE00299DFF8142947F2975041433A
:1026200091FBF2F2DDE92E45029225F00045D2F150
:10263000070204DD2046294600F04CFC0BE0524224
:102640000020DFF8EC1800F045FC02460B4620465F
:10265000294600F0E9FE0446B8F1660F109806BF5F
:10266000029F0A3706273F18142FC8BF14273020AF
:102670008DF854000D460020DFF8B818CDE92E0182
:102680000DF15506002F33DD2046294600F0F0FFFE
:1026900001460A4606F1080304200A26B2FBF6F6B4
:1026A00006EB860EA2EB4E02303203F8012C0A2212
:1026B000B6FBF2F202EB820EA6EB4E063036401E5F
:1026C00003F8026DE9D1083F002F03F10806D9DDB8
:1026D000084600F0E1FF02460B462046294600F07E
:1026E00031FEDDE92E2300F0E5FF04460D46CBE781
:1026F0000DF15500361A0DF1550404E00298401E04
:10270000761E0290641C20783028F7D0B8F1660F4E
:1027100002D10299491C04E0B8F1650F0CBF0121F8
:102720000021109808188642B8BF701E00281DD4DA
:10273000B04204DA215C3429C8BF392100DC3021E1
:102740000246631E9D1800E0401E15F80169521EE6
:102750008E42F9D0392902D1A15C491CA154002A2A
:1027600004D50299491C1C46401C02910646029D54
:1027700000F03EFC406A0778DDF8408030B2002867
:1027800002DC01260FF2F4744BF02000662808BF2B
:102790006D1C16D0672846D128B210F1040F48DB13
:1027A000404546DA9DF848006D1C010703D430B25D
:1027B0004045B8BF804628B2B8EB000848BF4FF08C
:1027C00000080FFA85FB07980A99BBF1000F00F388
:1027D000B2804A1C0A9230234354B8F1000F03DC44
:1027E0009DF84800010704D50A98411C0A910799F1
:1027F0000F5418EB0B0FB8BFC8F100052DB268429B
:102800000D90A84432B29045B8BF4646079B0A983F
:1028100036B20B9632462146184400F051FCA8EB24
:1028200006000E90CBE0BBF1610F17D14FF0700B9B
:1028300019E030B2404504DA9DF848100A0758BF45
:102840008046B8F1010848BF4FF00008BBF1670FA0
:1028500014BF4FF0450B4FF0650B04E0BBF1410F87
:1028600008BF4FF0500B0A98411C0A91B8F1000FB5
:10287000079914F8012B0A5403DC9DF8480001075E
:102880001AD50A98411C0A91B8F1000F07990F5404
:1028900012DD761E30B2804507980A9BB8BF4646C7
:1028A00032B22146184400F00BFC0A9936B2711876
:1028B0000A91A8EB06000D9007980A9908442AB2DD
:1028C000002A80F800B003D42B224270811C04E05F
:1028D0002D2141701546811C6D4200202EAA0A242C
:1028E00009E02B4693FBF4F505EB8506A3EB4603C5
:1028F00002F8013B401C2DB2002DF2DC012806DC61
:102900004BF02002652A04BF302201F8012B002879
:102910002EAA08D1302001F8010B06E0401E135CFE
:10292000303301F8013B0028F8DC079A0A9810447C
:10293000091A0B9143E0084431B22AB2914219DAE4
:1029400032B2214600F0BCFB0A9936B27118ABEBEB
:102950000606B8F1000F0A910D9603DC9DF84800B9
:10296000020704D5079847540B99491C0B91CDF8E1
:10297000388024E0214600F0A3FB0A98761B5844D7
:10298000B8F1000F0A9003DC9DF848100A0703D540
:10299000411C0A9107990F5430B2804507980A9B51
:1029A000B8BF464632B204EB0B01184400F088FB76
:1029B0000A9836B230180A90A8EB06000D909DF8E0
:1029C000480000F0140010287FF4AFAB099A0A9970
:1029D0000D988A180B9982180E988A1882181198E7
:1029E0008242BFF6A2AB821A17E49DF84A00622821
:1029F00008D068280ED06A2814D06C281FD07128FF
:102A000010D01CE0D9F8001051F8040BC9F80010E0
:102A1000C0B21AE0D9F8001051F8040BC9F8001040
:102A200080B212E0D9F80020D21D22F00702C9F8C6
:102A30000020D2E900010832C9F8002006E0D9F8E8
:102A4000001051F8040BC9F800100021CDE9040171
:102A50009DF8480001075AD5DDE90423002B08BF83
:102A6000002A54D04BF02000782850D109981FA993
:102A700030220A54401C431C099301F800B046E080
:102A80009DF84A00622808D068280ED06A2814D021
:102A90006C281FD0712810D01CE0D9F8001051F814
:102AA000040BC9F8001040B21AE0D9F8001051F830
:102AB000040BC9F8001000B212E0D9F80020D21DB2
:102AC00022F00702C9F80020D2E900010832C9F853
:102AD000002006E0D9F8001051F8040BC9F80010E6
:102AE000C117CDE90401002902D509982D210AE07A
:102AF000BDF84800810702D509982B2103E0C007E3
:102B000005D5099820211FAA1154401C09901FA81F
:102B100009990144079104A8594600F056F9FFF7B6
:102B200004BB9DF84A006C280BD001210991D9F80B
:102B3000000050F8041BC9F800008DF87C10FFF766
:102B4000F4BAD9F8000050F8041BC9F80000159138
:102B50004FF0FF3210920021169115AAFFF709BB22
:102B600025210122BBF1000F8DF87C1009923FF462
:102B7000DCAA8DF87DB00221FFF7AABACBCCCC0C31
:102B8000686A6C747A4C00007072696E74665F7368
:102B90003A2062616420256C7320617267756D65EF
:102BA0006E7400007072696E74665F733A206261C1
:102BB0006420257320617267756D656E7400000076
:102BC00000000000000000007072696E74665F73A0
:102BD0003A20256E20646973616C6C6F77656400C0
:102BE0007072696E74663A2062616420256E20619D
:102BF0007267756D656E740033B0BDE8F08F2DE9B6
:102C0000FC410F46064690467A6B7869396ABC6A81
:102C1000121AB869521A796A121AF869521A121AF3
:102C200097F83800141B41070FD42020002C8DF892
:102C300000000ADD254601236A463946304600F089
:102C40007DF900285DD16D1EF5D17B69424639467C
:102C5000304600F073F9002853D130208DF8000081
:102C60003D6A002D09DD01236A463946304600F0F1
:102C700065F9002845D16D1EF5D1BB69FA68394662
:102C8000304600F05BF900283BD130208DF8000081
:102C90007D6A002D08DD01236A463946304600F082
:102CA0004DF970BB6D1EF6D1F868B969FB69421821
:102CB0003946304600F042F918BB30208DF800004C
:102CC000BD6A002D08DD01236A463946304600F012
:102CD00035F9B0B96D1EF6D197F8380041070DD51A
:102CE0002020002C8DF8000008DD01236A463946BB
:102CF000304600F023F920B9641EF6D10020BDE86B
:102D0000F6814FF0FF30BDE8F6812DE9F8470D461A
:102D1000A3B02F6B002F8246904648BF6FF000474C
:102D200000F099FD696B401801AA0021C2E9001169
:102D3000812828BF4FF0FF3044D289461EE0A742C9
:102D400030DB6869201881280BD30021696303AA4E
:102D500029465046FFF753FF5FEA000922D40020BE
:102D6000686103AB6E6922466946981900F0A8F9BC
:102D7000A6196E6158F8040BA0B13F1B002F11DD9E
:102D8000D8F8001001AA684600F030F90446002C7B
:102D900005D4D8F800000028D1D1641ECFD54FF05B
:102DA000FF390EE0B9F1000F504604D103AA2946BD
:102DB000FFF725FF8146B9F1000F02D100206861BD
:102DC0006863484624B0BDE8F0872DE9FC43074618
:102DD0006F293E6908BF082405D041F020007828FB
:102DE00014BF0A2410243C25D7E90023642918BF06
:102DF00069299046994605D1002B03D5D8F10008E2
:102E000069EB4909B9F1000F08BFB8F1000F0CD107
:102E1000386B50B9082C39D197F83800010735D5EF
:102E200030203B2586F83B0030E08DF8001040460E
:102E300049462246E31700F013FD3032D0B26D1E32
:102E40003A28019504DB9DF80000A0F151018A1891
:102E50007255404649462246E31700F001FD804680
:102E60005FEA010908BFB8F1000F03D0F8687119D3
:102E70008842DCD3082C09D197F83800010705D522
:102E8000705D302802D06D1E30207055C5F13C02B7
:102E9000BA617119F960386B824208DA821A3A62B3
:102EA0004FF6EF70398F01403987BDE8F383002872
:102EB0000ED597F8380000F01400102808D17B6B6D
:102EC0007969386A5B1A1B1A9A1A002AC8BF3A62D3
:102ED000BDE8F3832DE9D04306460F4614464FF074
:102EE0000008DFF8549012E0E00707D542464B4651
:102EF0003046394600F0DEFB06460F46404649465E
:102F000042464B4600F0D6FB641080468946002CB2
:102F1000EAD130463946BDE8D083000002FCFFFF0D
:102F2000FFFF0F800000E03F0000F07FA08601005F
:102F30000000F03F84D7974100002440F8B50546D3
:102F40000E4617461C4600205CB117F8011BB068FE
:102F5000A847B06030B1F06A401CF0620020641EE7
:102F6000F3D1F2BD4FF0FF30F2BD00006E616E0094
:102F70004E414E00696E6600494E460030002E00FC
:102F80001C48704770B45368D41801E05B1C491E9C
:102F9000042B08DA00291FBF057804F8015B10F83C
:102FA000016B002EF2D1536070BC704738B51446E7
:102FB0001D4661B1FFF7E6FF61686A6B20469047E6
:102FC0006FF00102811A02D0491E01D001E003E036
:102FD00005E00021616032BD6FF0010032BD4FF0AD
:102FE000FF3032BDDA6B1047024BDFE7014BF9E7E8
:102FF0000148704700010020C8000020C9B20278D3
:103000008A421AB11CBF10F8012FF9E718BF00203F
:103010007047430080B500B906A005490B681BB195
:1030200022220021984701E000F032FD222002BD5B
:103030005C070020636F6E73747261696E74206840
:10304000616E646C65723A20626164206D657373B1
:103050006167650000F1010310F8011B11B110F860
:10306000011BFBE7C01A7047C9B2830706D0521E86
:1030700022D310F8013B9942F7D11FE0083A13D34D
:1030800002F1040241EA012141EA014150F8043B06
:10309000121F21BF4B40A3F1013C2CEA030C1CF092
:1030A000803FF3D0C9B2001F083210F8013B521E16
:1030B00028BF91EA030FF8D818BF0120401E7047BF
:1030C0004AB1000011F8013B521E00F8013B1CBF41
:1030D00011F8013BF8E7704710B5144600F002F80C
:1030E000226010BDC1F30A5343B14A0012F5001F1C
:1030F00028D2A3F2FE32A1EB0251704750EA410CF4
:1031000020D001F0004C31EA0C01B1FA81F204BF89
:10311000B0FA80F3D2180B3AB2F120032CBF00FAB8
:1031200003F1914041EA0C013EBFC2F1200C20FAAC
:103130000CF319439040524240F2FD33D21A01EB96
:1031400003517047002270474FF4001C1CEB410FE5
:1031500094BF1CEB430F09E041EA030C50EA4C0C0E
:1031600052EA0C0C03D2994208BF9042704714BF38
:103170008B428242704700004FF4001C1CEB410F51
:1031800094BF1CEB430F09E041EA030C50EA4C0CDE
:1031900052EA0C0C03D28B4208BF8242704714BF24
:1031A0009942904270470000124254D440F2FF7C92
:1031B0001CEA11530FD0634531D09B1863453CBFC7
:1031C00001EB0251704701F0004141EA0C5100202F
:1031D000AFF30080704750EA410320D001F0004C6B
:1031E00091EA0C011CD0B1FA81F30B3B9A420DD944
:1031F000D21A994051EA0C01C3F1200C20FA0CFCC0
:1032000061449840531C40F2FF7CD7E7914041EA6B
:103210000C01C2F1200C20FA0CF3194390407047C6
:10322000B0FA80F31533202BE0D3202AEED3203AD6
:10323000203B9A4209D9D21A00FA03F141EA0C0163
:103240000020531C40F2FF7CB8E700FA02F141EA8B
:103250000C0100207047524240F2FF7C1CEA1153DF
:103260000DD06345DBD0B2EB030C3CBFA1EB0251A8
:1032700070470CF1010221EA035141F4801150EA38
:10328000410CCCD001F0004C352A27DC30B481EA67
:103290000C01B2F1200309DAC2F12003044601FA5D
:1032A00003F5D0402843D1409C400CE0C3F12002FC
:1032B000450020FA03F418BF44F0010421FA03F09A
:1032C00091400C43002174F1004550F1000051EB96
:1032D0000C01244230BC7FF47BAF70476146002074
:1032E00076E70000C1F30A5340F2FE329B1A14DD68
:1032F000D3F120034FEAE17208DDC90241EA5051DF
:1033000041F00040D84080185040704703F2E1304F
:1033100010B1D24382F00040704700207047000097
:10332000C11768B14840401AB0FA80F29040D21CF0
:10333000C907C2F5846241EA025202EBD02140057E
:103340007047000070B44FF0004591EA030F40F160
:10335000A3836B40841A71EB030603D2001BB141B7
:10336000121973414FF4001C1CEB410F34BF7CEB6E
:10337000430442E00C0DA4EB1356352E4FDC45EA16
:10338000C323DB0A45EAC121C912B6F120050DDDD0
:1033900063FA05F6EB4086EA0305124218BF45F0D2
:1033A0000105C01851F100010CD213E062FA06F5D4
:1033B000F2405540F3415A40B340F3405A40801820
:1033C000594107D349085FEA30005FEA350528BF55
:1033D00045F0010501F58011420875F1004250F1F8
:1033E000000041EB04514E0016F5001F70BC38BFC1
:1033F00070470020090D090570471CEB410F10D2E2
:1034000052EA43060BD0BCEB410F05D80C0DAB4381
:10341000661E342EB6DD02E0AB438018594170BC05
:10342000704770BC70470000F0B540F2FF7581EA4C
:10343000030C0CF0004C15EA11541DBF15EA13578C
:10344000AC42AF42E5E0BC41C1F31301C3F3130347
:10345000801A994143F4801304D2641E400049410C
:1034600080185941C90241EA5051B1FBF3F603FB00
:103470001611A2FB0675D7EBC020A94102D2761E19
:1034800080185941C90241EA5051B1FBF3FE03FBD8
:103490001E11A2FB0E75D7EBC020A94103D2AEF1DD
:1034A000010E80185941890241EA9051760546EA99
:1034B0008E2EB1FBF3F603FB1611A2FB0675D7EBBC
:1034C0008020A94102D2761E80185941C90241EAE2
:1034D00050514EEA060EB1FBF3F603FB1611A2FBA8
:1034E0000675D7EBC020A94102D2761E801859413B
:1034F000C90241EA5051B1FBF3F703FB1711A2FBDC
:103500000735D3EBC020A94167F100070CBF00428B
:1035100047F0010766F3D5274FEA1E31B80814F5C6
:10352000806412DDBD0775F1004250EB0E5051EB87
:10353000045111F5801F5CBF41EA0C01F0BD4CF055
:103540007F6141F0E0410020F0BDBD076D0840EA19
:103550000E5041F48011D4F10104B4F120060ADACE
:10356000C4F120060200E04001FA06F3E1401843EE
:10357000B24015430EE0342C13DCC6F1200445EABA
:1035800040056D0820FA06F2154321FA06F0A14025
:103590000D43002175F1004250F1000051EB0C0188
:1035A000F0BD00205FEA0C01F0BDCFB992185B417D
:1035B000B3FA83F704BFB2FA82F6BF190B3FB7F133
:1035C00020062FBF02FA06F3BB40C7F1200622FAFD
:1035D00006F638BF3343BA401CB1E419641E33E722
:1035E0007F4231F00041B1FA81F404BFB0FA80F6B5
:1035F000A4190B3CB4F120062FBF00FA06F1A1403C
:10360000C4F1200620FA06F638BF3143A0403C1B27
:103610001AE7AC421ABF05EA1357AF4212E050EA6C
:1036200041061CBF52EA4306BFE750EA4107304655
:1036300061461CBF41EA0551F0BD52EA430C08BF88
:10364000C143F0BD00204FF4001616EB410F98BFA8
:1036500016EB430F08BF16EB410F24BFC14305E033
:1036600016EB430F0CBF61464CEA0551F0BD00005C
:10367000400D491840EA81200CD2490DA1F5806126
:10368000491C40F0004005DBD1F11F0154BFC84088
:10369000C017704700207047014648B1B0FA80F16A
:1036A0008840C91CC1F58461090501EBD0214005A2
:1036B00070470000B0B581EA030C0CF0004C40F2FA
:1036C000FF7515EA11541DBF15EA1357AC42AF42FE
:1036D00039E0E41923EA455343F48013C90241F069
:1036E000004141EA505EC7021100A7FB0202002818
:1036F0004FF00000EEFB01204FF00001E3FB07213B
:1037000018BF42F00102401800214941E3FB0E01BD
:10371000A4F580640F0302D252004041494154F1A4
:1037200001046CDD470872F1004250F1000051EBDA
:103730000451A1F580115CBF41EA0C01B0BD4CEA17
:1037400005510020B0BD05EA1357AC4214BFAF428B
:1037500041E050EA410E1CBF52EA430E02E06146CE
:103760000020B0BD24423C441BD15FEA070EF6D0D6
:10377000090302BF01460020AEF1140EB1FA81F731
:10378000AEEB070401FA07FE0C37C7F1200100FA7F
:1037900007F7C8404EEA000E23EA455343F480136E
:1037A000A2E733F00043B3FA83F704BFB2FA82FE14
:1037B00077440B3FE41BB7F1200E2FBF02FA0EF344
:1037C000BB40C7F1200E22FA0EFE38BF43EA0E03BB
:1037D000BA40641C82E750EA410E14BF52EA430E1D
:1037E0006FF000014FF4001717EB430F8ABF194623
:1037F00017EB410FB5E74CEA05510020B0BDD4F1FD
:103800000104B4F120070FDAC4F12007520828BFE1
:1038100042F0010210FA07F501FA07F7E1BF2A4367
:10382000E0403843E1400FE0352C98DCC7F120043C
:1038300052EA400220FA07F218BF42F0010231FAC0
:1038400007F0A1400A43002172F1004250F100004C
:1038500051EB0C01B0BD80B5FFF792FB006C02BDCF
:10386000BBBBE1B1B2F5803F80F07E80022A1ED959
:103870008C46B1FBF2F102FB11C31B0443EA104377
:10388000B3FBF2FC02FB1C3380B240EA0343B3FB00
:10389000F2F002FB103240EA0C4000237047022A8B
:1038A00005D98446B0FBF2F002FB10C270474AB162
:1038B00005D100F0010249085FEA3000704700229C
:1038C0000023704700F09EB90B0002000021002089
:1038D0007047904271EB030CF6D3B3F5803F2FD2C3
:1038E000F0B5B3FA83F7B1FA81F4A7F10F0E3D1BDF
:1038F0005340CEF1200602FA0EF2F3415340B5F1E7
:103900000F0746D80F3C2C444140C4F12006A0408C
:10391000F1414140B1FBF3F603FB1611A2FB064552
:10392000001BA94102D2761E8018594180EA01028B
:1039300021FA0EF362FA0EF200215A403046F0BD31
:1039400030B4B1FBF3FC03FB1C11A2FB0C45001BC4
:10395000A94103D2ACF1010C8018594130BC024698
:103960000B46604600217047B2F1807F65D3F0B509
:10397000B2FA82F7B1FA81F4C7F10F063D1B22FAC1
:1039800006F307F1110EF24120355A40B5F10F0749
:10399000B8D94140C4F12006A040F1414140B1FBFB
:1039A000F3FC03FB1C11A2FB0C45001BA94103D235
:1039B000BCF1010C801859410F2F12D30F3FC903DE
:1039C00041EA5041B1FBF3F603FB1611A2FB064599
:1039D000D4EBC030A94102D2761E8018594146EA84
:1039E000CC3C07B34140C7F12006B840F14141400B
:1039F000B1FBF3F603FB1611A2FB0645001BA94120
:103A000002D2761E8018594180EA010221FA0EF393
:103A1000C7F1200462FA0EF20CFA07F05A402CFAB1
:103A200004F13043F0BD80EA010221FA0EF30021D7
:103A300062FA0EF260465A40F0BD8C46B1FBF2F1DC
:103A400002FB11C31B0243EA1063B3FBF2FC02FB4F
:103A50001C331B024CEA002043EA1063B3FBF2FC68
:103A600002FB1C331B024CEA002043EA1063B3FB49
:103A7000F2FC02FB1C331B024CEA002043EA1063F9
:103A8000B3FBF2FC02FB1C324CEA0020002370471F
:103A9000012000F0B9B80000841A71EB030604D2CB
:103AA0006E40001BB141121973414FF4001C1CEB16
:103AB000410F34BF7CEB430683E00C0DA4EB13569F
:103AC000362E00F37C80012E45EAC32341DC43EA15
:103AD000525312BFD20292025B08240545EAC1216B
:103AE00041EA5051D2EBC020994125D407D1B0FA18
:103AF00080F610FA06F162D00020203608E0B1FA14
:103B000081F6B140C6F1200220FA02F21143B04022
:103B10004FEAF474B4EB465434F001064FEA7404EF
:103B20000AD8D6F50016760D04F00044F04061FA8C
:103B300006F25040F1404840C00A40EA415021F0AE
:103B4000004128BF5FEA500550F1000044EBD1214D
:103B500035E0DB0A45EAC121C90AB6F120050EDDD0
:103B600042EA0242120CC5F1200603FA06F6EB40C7
:103B700042EA06056D42984161F100010DE062FAEA
:103B800006F5F240554063FA06FC82EA0C02F34067
:103B90005A406D42904161EB030111F4801F05D141
:103BA000641E620502D06D004041494121F480113C
:103BB000430875F1004350F1000041EB045170BC23
:103BC00070471CEB410F15D223F0004352EA430625
:103BD0000BD04FEA4C0CBCEB410F04D80C0D661E09
:103BE000342EB7DDEBE7801A994150EA410608BF51
:103BF0000021E4E708BF1CEB430F28BF6FF0000172
:103C0000DDE700007047000080B5AFF30080024A96
:103C100011001820ABBEFBE72600020000000000E8
:103C20000000000000000000000000000000000094
:103C30000000000000000000000000000000000084
:103C40000000000C000C000C000C000C000C000C20
:103C5000000C000C000C000C0000000C000C00001C
:103C6000000000000000001B001B001B001B001BCD
:103C70000000000000000000000000000000000044
:103C80000000000000000000000080198019801969
:103C90008019C07FC07F80190033C07FC07F003390
:103CA0000033003300330000000000000000001E5D
:103CB000003F807580650074003C001E0007800591
:103CC000806580658075003F001E000400040000D0
:103CD0000000007000D840D8C0D880D9007300061A
:103CE000000C801BC036C066C046C00680030000C2
:103CF000000000000000001E003F003300330033CE
:103D0000001E000CC03CC066806380618063C03EC2
:103D1000801C0000000000000000000C000C000CE3
:103D2000000C000C0000000000000000000000007B
:103D30000000000000000000000000008000000102
:103D40000003000600060004000C000C000C000C30
:103D5000000C000C000400060006000300018000B7
:103D6000002000100018000C000C000400060006E3
:103D700000060006000600060004000C000C0018F7
:103D8000001000200000000C002D003F001E00333A
:103D90000000000000000000000000000000000023
:103DA0000000000000000000000000000000000C07
:103DB000000C000C000CC0FFC0FF000C000C000C3D
:103DC000000C0000000000000000000000000000E7
:103DD00000000000000000000000000000000000E3
:103DE000000000000000000C000C000400040008AB
:103DF00000000000000000000000000000000000C3
:103E00000000001E001E0000000000000000000076
:103E100000000000000000000000000000000000A2
:103E20000000000000000000000000000000000C86
:103E3000000C00000000000000000003000300036D
:103E40000006000600060006000C000C000C000C2A
:103E50000018001800180000000000000000001EFC
:103E6000003F0033806180618061806D806D806182
:103E7000806180610033003F001E000000000000F0
:103E800000000006000E001E003600260006000698
:103E900000060006000600060006000600060000F8
:103EA000000000000000001E003F80738061806100
:103EB000800100030006000C001800300060807FC5
:103EC000807F0000000000000000001C003E006336
:103ED00000630003000E000E00038001800180617A
:103EE0008073003F001E000000000000000000067C
:103EF000000E000E001E001E001600360036006682
:103F0000807F807F000600060006000000000000A1
:103F10000000007F007F006000600060006E007F96
:103F200080638001800180618073003F001E00007B
:103F3000000000000000001E003F80338061006030
:103F4000006E007F80738061806180618033003FFC
:103F5000001E0000000000000000807F807F8001C4
:103F60000003000300060006000C000C000C000813
:103F70000018001800180000000000000000001EDB
:103F8000003F8063806180610021001E003F8061EE
:103F9000806180618061003F001E00000000000021
:103FA0000000001E003F00738061806180618073AB
:103FB000803F801D800180610073003F001E000073
:103FC0000000000000000000000000000000000CE5
:103FD000000C000000000000000000000000000CC9
:103FE000000C0000000000000000000000000000C5
:103FF00000000000000C000C0000000000000000A9
:104000000000000C000C0004000400080000000088
:104010000000000080008003000E003800600038BF
:10402000000E80038000000000000000000000007F
:1040300000000000000000000000807F807F000082
:104040000000807F807F0000000000000000000072
:1040500000000000000000000000000000400070B0
:10406000001C000780010007001C007000400000D9
:1040700000000000000000000000001F803FC07131
:10408000C060C000C00180030007000E000C000CDF
:104090000000000C000C0000000000000000001EEA
:1040A000003F803180718063806F806D806D806F94
:1040B000806700600032003E001C0000000000002D
:1040C0000000000E000E001B001B001B001B8031B7
:1040D0008031803F803F8031C060C060C0600000A0
:1040E000000000000000007C007E006300630063AD
:1040F0000063007E007E0063806180618063007FDA
:10410000007E0000000000000000001E003F803123
:10411000806100600060006000600060006080619D
:104120008031003F001E0000000000000000007C05
:10413000007F006380638061806180618061806155
:10414000806100630063007E007C000000000000CE
:104150000000807F807F0060006000600060007F62
:10416000007F0060006000600060807F807F000052
:10417000000000000000807F807F00600060006021
:104180000060007F007F00600060006000600060F1
:1041900000600000000000000000001E003F8031B1
:1041A0008061006000600060806380638061806186
:1041B0008031803F001E0000000000000000806190
:1041C00080618061806180618061807F807F8061AB
:1041D000806180618061806180610000000000007A
:1041E0000000003F003F000C000C000C000C000C15
:1041F000000C000C000C000C000C003F003F000005
:104200000000000000008001800180018001800129
:104210008001800180018001806180618073003FA6
:10422000001E0000000000000000C060806100630C
:1042300000660066006C0078007C00660066006323
:1042400080618061C060000000000000000000602C
:10425000006000600060006000600060006000605E
:10426000006000600060807F807F00000000000030
:104270000000C071C071C07BC07AC06AC06AC06EE5
:10428000C064C060C060C060C060C060C06000004A
:104290000000000000008071807180798079807951
:1042A000806D806D806D80658067806780678063CA
:1042B00080630000000000000000001E003F00338B
:1042C00080618061806180618061806180618061E6
:1042D0000033003F001E0000000000000000007ED0
:1042E000007F80638061806180618063007F007EE9
:1042F00000600060006000600060000000000000DE
:104300000000001E003F0033806180618061806199
:1043100080618061806580670033803F401E0000BF
:10432000000000000000007E007F806380618061EB
:104330008063007F007E00660063006380618061AF
:10434000C0600000000000000000000E001F80316F
:10435000803100300038001E0007800380618061DA
:104360008031003F001E0000000000000000C0FF80
:10437000C0FF000C000C000C000C000C000C000C2A
:10438000000C000C000C000C000C000000000000F1
:1043900000008061806180618061806180618061F6
:1043A00080618061806180618073003F001E000039
:1043B000000000000000C060C060C060803180313B
:1043C0008031001B001B001B001B000E000E000EA6
:1043D00000040000000000000000C0C0C0C0C0C059
:1043E000C0C0C0C0C0CC804C804C805E8052805227
:1043F0008073806180610000000000000000C0C088
:10440000806080610033003B001E000C000C001E29
:10441000001F003B80718061C0C0000000000000F0
:104420000000C0C08061806100330033001E001EA8
:10443000000C000C000C000C000C000C000C000028
:10444000000000000000803F803F80010003000367
:104450000006000C000C0018001800300060807F7F
:10446000807F000000000000000F000F000C000C17
:10447000000C000C000C000C000C000C000C000CDC
:10448000000C000C000C000C000F000F00000018C6
:1044900000180018000C000C000C000C00060006B0
:1044A00000060006000300030003000000000000F7
:1044B000001E001E0006000600060006000600069C
:1044C00000060006000600060006000600060006BC
:1044D000001E001E0000000C000C001E0012003325
:1044E00000338061806100000000000000000000D7
:1044F00000000000000000000000000000000000BC
:1045000000000000000000000000000000000000AB
:104510000000000000000000E0FF00000000003884
:104520000018000C00000000000000000000000067
:10453000000000000000000000000000000000007B
:1045400000000000000000000000001F803F8061AC
:104550008001801F803F80618063807FC0380000C1
:104560000000000000000060006000600060006E5D
:10457000007F807380618061806180618073007FD3
:10458000006E0000000000000000000000000000BD
:104590000000001E003F8073806100600060806149
:1045A0008073003F001E000000000000000080013A
:1045B000800180018001801D803F80738061806167
:1045C000806180618073803F801D000000000000DA
:1045D00000000000000000000000001E003F00730B
:1045E0008061807F807F00608071003F001E00003E
:1045F000000000000000C007C00F000C000C807F0E
:10460000807F000C000C000C000C000C000C000C57
:10461000000C00000000000000000000000000008E
:10462000801D803F807380618061806180618073C4
:10463000803F801D80018063007F003E000000609D
:10464000006000600060006F807F80718061806129
:1046500080618061806180618061000000000000F5
:1046600000000006000600000000003E003E0006BC
:104670000006000600060006000600060006000010
:10468000000000000006000600000000003E003EA2
:1046900000060006000600060006000600060006EA
:1046A00000060046007E003C0000006000600060E4
:1046B0000060806100630066006C007C007600632F
:1046C00000638061C0600000000000000000003E48
:1046D000003E000600060006000600060006000672
:1046E00000060006000600060006000000000000AC
:1046F0000000000000000000000080DDC0FFC0CE10
:10470000C0CCC0CCC0CCC0CCC0CCC0CCC0CC0000D5
:104710000000000000000000000000000000006F2A
:10472000807F807180618061806180618061806153
:104730008061000000000000000000000000000098
:104740000000001E003F8073806180618061806195
:104750008073003F001E0000000000000000000009
:1047600000000000006E007F8073806180618061C6
:1047700080618073007F006E0060006000600060F8
:104780000000000000000000801D803F80738061F9
:104790008061806180618073803F801D8001800125
:1047A00080018001000000000000000000000067A0
:1047B000803F0039003000300030003000300030E1
:1047C00000300000000000000000000000000000B9
:1047D0000000001E803F80610060007F803F8001FC
:1047E0008061007F001E000000000000000000004B
:1047F000000800180018007F007F0018001800183B
:10480000001800180018801F800F00000000000032
:1048100000000000000000000000806180618061F5
:1048200080618061806180618063807F803D000065
:104830000000000000000000000000000000C06058
:10484000803180318031001B001B001B000E000EE8
:104850000006000000000000000000000000000052
:10486000000080DD80DD80DD0055005500550077BB
:10487000007700220022000000000000000000007D
:10488000000000000000806100330033001E000CB7
:10489000000C001E003300338061000000000000A7
:1048A0000000000000000000806180618031003362
:1048B0000033001B001B001B000E000E000E001C2E
:1048C000007C007000000000000000000000C07FBD
:1048D000C07F800100030006000C00180030C07F7C
:1048E000C07F000000000000800380070006000673
:1048F000000600060006000E001C001C000E00064C
:104900000006000600060006800780030006000679
:104910000006000600060006000600060006000667
:104920000006000600060006000600060006000657
:104930000038003C000C000C000C000C000C000EB9
:1049400000070007000E000C000C000C000C000C0F
:10495000003C0038000000000000000000000000E3
:1049600000008038807F0047000000000000000049
:104970000000000000000000000000000000000037
:104980000000000000000000000000000010001007
:1049900000100010001000100000001000000000C7
:1049A000002800280028000000000000000000008F
:1049B0000000000000240024007C00240048007C4B
:1049C0000048004800000000003800540050003843
:1049D000001400540054003800100000002000545F
:1049E00000580030002800540014000800000000A7
:1049F000001000280028001000340048004800344F
:104A00000000000000100010001000000000000076
:104A1000000000000000000000080010002000203E
:104A200000200020002000200010000800200010BE
:104A30000008000800080008000800080010002016
:104A400000100038001000280000000000000000E6
:104A5000000000000000000000100010007C0010AA
:104A60000010000000000000000000000000000036
:104A70000000000000000010001000100000000006
:104A800000000000000000380000000000000000EE
:104A90000000000000000000000000000000001006
:104AA00000000000000800080010001000100010B6
:104AB00000200020000000000038004400440054A2
:104AC00000440044004400380000000000100030A2
:104AD0000050001000100010001000100000000036
:104AE0000038004400440004000800100020007C4E
:104AF0000000000000380044000400180004000416
:104B000000440038000000000008001800280028B9
:104B10000048007C0008000800000000007C004005
:104B20000040007800040004004400380000000049
:104B3000003800440040007800440044004400383D
:104B400000000000007C000400080010001000209D
:104B5000002000200000000000380044004400381D
:104B600000440044004400380000000000380044C5
:104B700000440044003C00040044003800000000F1
:104B80000000000000100000000000000000001005
:104B90000000000000000000000000100000000005
:104BA000000000100010001000000000000C003099
:104BB00000400030000C0000000000000000000079
:104BC0000000007C0000007C0000000000000000ED
:104BD00000000000006000180004001800600000E1
:104BE000000000000038004400040008001000101D
:104BF000000000100000000000380044004C005489
:104C0000005C004000400038000000000010002858
:104C1000002800280028007C004400440000000018
:104C200000780044004400780044004400440078C8
:104C300000000000003800440040004000400040F8
:104C400000440038000000000070004800440044A8
:104C5000004400440048007000000000007C004058
:104C60000040007C004000400040007C000000004C
:104C7000007C0040004000780040004000400040C0
:104C8000000000000038004400400040005C004488
:104C90000044003800000000004400440044007C50
:104CA00000440044004400440000000000380010AC
:104CB000001000100010001000100038000000006C
:104CC0000004000400040004000400040044003850
:104CD0000000000000440048005000600050004800
:104CE0000048004400000000004000400040004038
:104CF000004000400040007C000000000044006CC8
:104D0000006C0054004400440044004400000000D3
:104D100000440064006400540054004C004C004403
:104D200000000000003800440044004400440044F7
:104D300000440038000000000078004400440044B3
:104D400000780040004000400000000000380044AF
:104D500000440044004400440054003800040000B3
:104D600000780044004400440078004800480044B3
:104D7000000000000038004400400030000800043B
:104D80000044003800000000007C001000100010FB
:104D9000001000100010001000000000004400444B
:104DA0000044004400440044004400380000000077
:104DB000004400440044002800280028001000108F
:104DC0000000000000440044005400540054006CF3
:104DD00000280028000000000044002800280010DF
:104DE0000010002800280044000000000044004497
:104DF0000028002800100010001000100000000023
:104E0000007C000400080010001000200040007C1E
:104E1000000000000018001000100010001000102A
:104E200000100010001000180020002000100010DA
:104E30000010001000080008000000000030001002
:104E400000100010001000100010001000100030C2
:104E500000100028002800440000000000000000AE
:104E60000000000000000000000000000000000042
:104E700000000000000000FE002000100000000004
:104E80000000000000000000000000000000000022
:104E900000380044003C0044004C00340000000096
:104EA0000040004000580064004400440064005882
:104EB00000000000000000000038004400400040F6
:104EC0000044003800000000000400040034004CDE
:104ED00000440044004C00340000000000000000CA
:104EE00000380044007C004000440038000000000E
:104EF000000C0010007C00100010001000100010CA
:104F000000000000000000000034004C0044004499
:104F1000004C003400040078004000400058006459
:104F20000044004400440044000000000010000061
:104F300000700010001000100010001000000000B1
:104F40000010000000700010001000100010001091
:104F5000001000E000400040004800500060005099
:104F60000048004400000000007000100010001015
:104F700000100010001000100000000000000000F1
:104F80000078005400540054005400540000000005
:104F90000000000000580064004400440044004445
:104FA00000000000000000000038004400440044FD
:104FB00000440038000000000000000000580064B9
:104FC000004400440064005800400040000000001D
:104FD0000034004C00440044004C00340004000441
:104FE0000000000000580064004000400040004005
:104FF00000000000000000000038004400300008FD
:10500000004400380000000000200020007800204C
:105010000020002000200018000000000000000018
:105020000044004400440044004C003400000000F0
:105030000000000000440044002800280028001060
:105040000000000000000000005400540054006CF8
:105050000028002800000000000000000044002894
:1050600000100010002800440000000000000000B4
:1050700000440044002800280010001000100060C8
:1050800000000000007C0008001000200040007CB0
:105090000000000000180010001000100020002088
:1050A0000010001000100018001000100010001078
:1050B0000010001000100010001000100030001050
:1050C0000010001000080008001000100010003050
:1050D0000000000000000074004C00000000000010
:1050E0000000000038B5040001D1012032BD00F0FD
:1050F000B3F818B900F021FAFCF776F92DE090F832
:105100003D10012901D001207047022180F83D1097
:105110000168CA6842F00102CA600068DFF8301115
:10512000884218BFB0F1804F07D0DFF828118842BD
:105130001CBFDFF82C21904209D1816801F00701E2
:10514000062908D0016841F00101016003E002680E
:1051500042F0010202600020704702206870211DA9
:10516000206800F0EEF90120A872A870E87028719C
:105170006871A871E871287268726870002032BD89
:1051800038B5040001D1012032BD00F065F818B92E
:1051900000F0D3F900F0E5FADFE710B5044604F1BA
:1051A0003E0009B9027807E0042908BF427803D01D
:1051B00008290CBF8278C278012A01D0012010BDD5
:1051C00011B9022202700AE0042902D102224270BF
:1051D00005E0082907BF022282700223C3702068FD
:1051E000012200F0B0FA00F025F818BFB1F1804FAD
:1051F00006D000F01BF81CBFDFF86420914205D1F7
:1052000000F00FF806D000F007F803E00A6842F05B
:1052100001020A60002010BD086840F0010008602B
:105220007047886800F0070006287047DFF8240000
:10523000814270472168DFF81800814205D1DFF80C
:1052400024100A6842F400420A60216881427047D3
:10525000002C01400004004004F13C0568787047D0
:1052600000080040442C014010B504462068016944
:105270008A0715D5C1688A0712D56FF0020101614E
:1052800001222277806910F0030F204602D000F03F
:1052900069FA03E000F067FA00F087F80020207751
:1052A000206801694A0715D5C1684A0712D56FF011
:1052B0000401016102222277806910F4407F2046B8
:1052C00002D000F04FFA03E000F04DFA00F06DF864
:1052D00000202077206801690A0715D5C1680A07F0
:1052E00012D56FF00801016104222277C06910F025
:1052F000030F204602D000F035FA03E000F033FA45
:1053000000F053F80020207720680169CA0615D5FF
:10531000C168CA0612D56FF0100101610822227718
:10532000C06910F4407F204602D000F01BFA03E071
:1053300000F019FA00F039F80020207720680169A0
:10534000CA0708D5C168CA0705D56FF00101016118
:10535000204600F009FA206801690A0608D5C168EC
:105360000A0605D56FF080010161204600F098FC27
:10537000206801694A0608D5C1684A0605D56FF05C
:1053800040010161204600F08CFC206801698A061A
:105390000AD5C1688A0607D56FF020010161204651
:1053A000BDE8104000F07EBC10BD204600F07BBC84
:1053B000002084F83C002846704770B500F058F88B
:1053C00001D1022070BD012084F83C0032B1042AD2
:1053D00015D0082A25D00C2A34D045E0206800F0EA
:1053E000DFF82168886940F008008861886920F04A
:1053F000040088618A69306902438A6135E0206867
:1054000000F0F3F82068816941F4006181618169ED
:1054100021F4806181618169326941EA02218161FF
:1054200023E0206800F00AF92168C86940F008000C
:10543000C861C86920F00400C861CA6930690243C4
:10544000CA6112E0206800F021F92068C16941F4C6
:105450000061C161C16921F48061C161C1693269C2
:1054600041EA0221C16100E00125FFF7A1FF70BD03
:105470000446002594F83C0001280E46704770B59C
:10548000064606F13C0500242878012801D10220B7
:1054900070BD0120287002226A70DFF83002326885
:1054A0009368034093600868020018BF102830D04A
:1054B000202818BF30282CD0402826D0502819D0BA
:1054C00060281BD0702806D0B0F5805F27D0B0F5DB
:1054D000005F07D022E000F02BF83068816841F0CF
:1054E000770105E000F024F83068816841F48041DC
:1054F000816014E000F018F850210BE0CA68496898
:10550000306800F0FCF8602104E000F00DF8402164
:1055100000E00146306800F004F900E001240120B9
:10552000687000F00AF870BDCA6849683068D7E052
:10553000CB684A6889683068FBE000212970204602
:10554000704770B5624E0368624C634DB04218BF3D
:10555000B0F1804F03D0A84218BFA04209D14A68D9
:1055600023F070031343B0421CBFB0F1804FA84238
:1055700001D0A04203D1CA6823F4407313434A699F
:1055800023F0800313430360B0428B68C3620A6850
:10559000826202D10969514A11600123436170BDE1
:1055A00070B5066A026A52085200026226F00206CC
:1055B000446885690B688A6825F073051D431643A6
:1055C000434B98420BD1CA684B6926F0080624F475
:1055D000407416438A691C4326F004061443446051
:1055E000856149684163066270BD70B5056A026AEB
:1055F000374E22F01002026225F0200543688469CC
:105600000A6824F4E64444EA02248A68B04245EA7F
:1056100002150DD1CA684E6925F0800545EA0215CC
:105620008A6923F44063164325F0400543EA860364
:105630004360846149688163056270BD70B5056A25
:10564000026A22F48072026225F400754368C4691C
:105650000A688E6824F0730414431D4A904245EA98
:1056600006250DD1CA684E6925F4006545EA022574
:105670008A6923F44053164325F4806543EA0613F0
:105680004360C4614968C163056270BD70B5046A56
:10569000026A0F4E22F48052026224F400544268DF
:1056A000C3690D6823F4E64343EA05238D68B042DD
:1056B00044EA053404D14D6922F4804242EA85125D
:1056C0004260C36149680164046270BD8800FFFFE5
:1056D000002C01400008004000040040302C014034
:1056E00010B5036A046A64086400046223F00A03C4
:1056F000846924F0F00444EA021484612EE010B5B9
:10570000036A046A24F01004046223F0A00384698D
:1057100024F4704444EA0234846143EA01130362CE
:1057200010BD826822F07002114341F007018160D0
:10573000704710B5846824F47F442143114341EA43
:105740000321816010BD10B501F01F01036A01241F
:105750008C40A343036202FA01F1036A1943016218
:1057600010BD70477047704770B50068DFF8984407
:10577000DFF89854B0F1804F40F0ED80A869401CEC
:105780001428A86140F0D2800022AA610221DFF82B
:10579000806400F00DF9002804BF687900280AD160
:1057A00000F026FCE878401CC1B2042908BF0020A4
:1057B000E87001206871022100F0FAF8012804BFA6
:1057C0000020687100F0F3F8002804BF2879002851
:1057D00028D100F00DFC2969E87A18B90A3164294A
:1057E000A8BF64212961287B696918B90A318C290D
:1057F000A8BF8C216961687B95F9001020B9491C0C
:105800004AB2142AA8BF14212970A87B696A30B94A
:1058100001F5FA7142F210708142A8BF01460120E1
:105820006962287100F0C3F8012804BF00202871C4
:1058300000F0B9F8002804BFA879002827D100F0AB
:10584000D7FB0120A8712969E87A18B90A3900291B
:10585000D8BF00212961287B696918B90A39002954
:10586000D8BF00216961687B95F9001020B9491EF5
:105870004AB2002AD8BF0021A87B297038B9686ACB
:10588000A0F5FA7068620028DCBF0020686200F0B2
:105890008AF8012804BF0020A871802100F088F850
:1058A000002804BFE879002804D1287A401C01218F
:1058B0002872E971802100F07BF8012804BF0020E4
:1058C000E871287A012811D100F0F0FB00F077F997
:1058D0004FF47A727821642000F06DF8002028726D
:1058E000002101206972A870697009E0687A0128B6
:1058F00006D100225821642000F05DF80020A87035
:105900004FF4006100F050F8012804BF687A0028C5
:1059100048D1012201212046FCF7F6F9012063213C
:1059200028626972BDE8704000F0BCBB022100F043
:105930003BF8002804BFA87A002804D16878401CEE
:1059400001216870A972022100F02EF8012829D1E6
:105950000020A87270BDAF49884223D1286A01286F
:1059600002D1E869401CE861E869696A884209D1A6
:10597000002201212046FCF7C7F90020E8612862D7
:1059800001206872687895F90010884204BFA878F1
:10599000012807D1696928694FF47A7200F00BF881
:1059A0000020687070BD80212046FCF7A7B9012156
:1059B0003046FCF7A3B900F063BB00002DE9F84FB7
:1059C00000F096FB00F0A6FB00F0D2FB00F036FCE6
:1059D00000F04CFC00F09CFC00F0A4FC00F0D2FCB9
:1059E00000F01AFD00F01BFD00218B488B4D874C09
:1059F000DFF82C62A4A70FF284280FF270290FF2AF
:105A0000602ADFF820B2FFF7C8FB8748FFF777FB73
:105A10008648FFF774FB8648FFF771FB00F028FB10
:105A200000F040FB2888206100F03EF91421192085
:105A300000F0FBF90122314683A000F040FA00F0AB
:105A4000A7F94FF47A7000F003FD00F0D1FA1421A9
:105A50000C2000F0EAF901224FEA06010FF2F410DF
:105A60008CA600F02CFA00F093F94FF47A7000F055
:105A7000EFFC00F0BDFA28886E49206104F188052A
:105A80006D4800886061088820706C4800886062FA
:105A9000002100F04DF801225946504600F00FFA5F
:105AA000012000900A2382220A21002000F018FA27
:105AB00000F042F80C2100F03BF82269494604F15D
:105AC000280000F0D9FCE27A594604F1280000F0E1
:105AD000F6F9182100F02CF86269414604F14800FB
